:020000040001F9
:10800000D82D0020F58001000F81010011810100B1
:108010000000000000000000000000000000000060
:1080200000000000000000000000000013810100BB
:108030000000000000000000158101001781010010
:108040001981010019810100AD830100198101002E
:108050001981010000000000C581010019810100A3
:1080600019810100198101001981010019810100A4
:108070001981010019810100198101001981010094
:1080800019810100C18201001981010019810100DB
:10809000E18201001981010035830100198101008D
:1080A000198101001981010000000000000000009A
:1080B00000000000000000000000000000000000C0
:1080C0000348854600F06CF800480047FD96010023
:1080D000D82D0020401E00BF00BF00BF00BF00BF62
:1080E00000BF00BF00BF00BF00BF00BF00BFF1D195
:1080F000704700000321094802680A4302600848EB
:1081000002680A4302600748804707480047FEE7C5
:10811000FEE7FEE7FEE7FEE7FEE70000240500407D
:108120005405004059830100C180010030B50B4661
:10813000014600202022012409E00D46D5409D4241
:1081400005D31D469540491B2546954040191546C7
:10815000521E002DF1DC30BD03460B439B0703D0BC
:1081600009E008C9121F08C0042AFAD203E00B78FC
:108170000370401C491C521EF9D27047D2B201E074
:108180000270401C491EFBD270470022F6E710B572
:1081900013460A4604461946FFF7F0FF204610BD75
:1081A000064C0125064E05E0E36807CC2B430C3C4A
:1081B00098471034B442F7D3FFF786FF00A20100BE
:1081C00020A20100F0B52A4885B0046929480021A1
:1081D000C1630E46284F45E0142079687043451866
:1081E0000120B968B04008423AD0002000900390C6
:1081F000E8682968C043604008400146029028466C
:1082000001F068FD1A48006929686040084016D0EE
:10821000224642400192E868C0435040084001466F
:108220000090284601F056FD019A0098A9689043F5
:108230000140039100986968024011400091029842
:10824000A968A04301400398029A0143686822404C
:108250001040009A104302460A4301D02A69904711
:10826000761CF6B278788642B6D305B0F0BD000031
:108270000005005040610040482000208307FF2295
:10828000DB0E9A408907090E994000280BDA000797
:10829000000F0838830808489B001818C3699343E7
:1082A0000B43C3617047830804489B001B18186880
:1082B000904308431860704700ED00E000E400E0E0
:1082C00010B506490020086048608860C86003490E
:1082D00040390860486001F0F7FD10BD40110140D1
:1082E000FEB50020C043124D0290686901906846B7
:1082F0002E6901F04FF8074601F03EF90446002FC1
:1083000008D002AA0199009801F064F8029801F0DF
:108310007DF906E0029801F079F9002801D1002CDE
:1083200002D0304600F06AFF00206871FEBD0000F8
:108330005420002010B507484068002807D0804727
:10834000002803D00022114600F022FA10BD01F0EF
:1083500095F810BD7C20002010B501F0DDF8002854
:1083600005D00E490C484860C8130D4988610D4876
:10837000018CC9B201290ED1818C09070BD1018D65
:108380000906090F042906D1808D0006000F02D1CD
:1083900005490120886010BDDFFF07C000050040CF
:1083A000006C0040C00F00F0000600407CB51B4C84
:1083B000A0681B4E0025002818D0A56019488069C8
:1083C000C1B2194800F015FA002805D001216A460B
:1083D00011700190684607E013488168C068401A30
:1083E000012803D168460570B1688847E069002814
:1083F00003D0E561032001F099FB606A00280BD0EF
:108400006562084980390868086002216A4611706F
:108410000190B168684688477CBD0000002100409B
:108420003C20002000250040B82500200FB410B5E6
:1084300003A9044B044A029800F024F810BC08BCBD
:1084400004B018472D9401007820002030B4744601
:10845000641E2578641CAB4200D21D46635D5B0040
:10846000E31830BC184702E008C8121F08C1002AF0
:10847000FAD170477047002001E001C1121F002AA5
:10848000FBD17047FFB581B00546002706E02528DF
:108490000AD0049A039990476D1C7F1C2878002805
:1084A000F5D1384605B0F0BD002269786D1C104644
:1084B0002E2913D1697804226D1C2A2909D1029929
:1084C0006D1C01C9029109E00A235843303808188D
:1084D0006D1C29780B46303B092BF5D92B78002BE6
:1084E000DFD0632B07D0732B10D0049A1846039962
:1084F00090477F1C2DE002996C460B782370091D74
:108500000291002161706E46012104E0029940C988
:1085100002910021C94352070AD5002400E0641CDF
:1085200084420DDA8C42FADB325D002AF7D107E093
:10853000002400E0641C8C42FCDB305D0028F9D193
:108540003F1904E03078049A761C03999047641E22
:10855000F8D26D1CA2E7000038B50D4C60780228F7
:1085600002D00C490120886069460B4800F01EF9D2
:10857000002802D000F016F838BD0848802181603C
:108580006A46074B1278DA6102226270416038BD98
:108590003C20002000200040C8250020002300408F
:1085A000002500401CB506490120C86005494870F7
:1085B00003206A4610708968684688471CBD000021
:1085C000002000403C20002004490020487004495D
:1085D0000122CA604A600349086070473C200020BD
:1085E0000020004000250040F7B582B00026054677
:1085F000167000781446002805D02846039901F02B
:10860000CBF9060008D1A87800281ED02078039F57
:10861000001D1F2802D90C2005B0F0BD684679DF87
:108620000028F9D121780322481C20707A5421783F
:108630001922481C20707A542078C1196846008895
:1086400001F0F6FC217840182070E8780223002819
:1086500010D02078039A411C21701354207803997C
:10866000471C012227700A542078EA78471C039996
:1086700027700A546868002815D0002141562078D8
:108680008C460246C01C03991F28C4D8501C207079
:108690008B5422780A23501C20708B542078624619
:1086A000431C23700A542889002809D028460094C6
:1086B000062202210830039B01F02EFD0600ABD1FB
:1086C000288A002809D02846009407220321103068
:1086D000039B01F021FD06009ED1288B002809D0C4
:1086E00028460094152214211830039B01F014FD34
:1086F000060091D1286A002805D02246039900F08F
:10870000CFFD060088D1686A002805D0224603996B
:1087100001F010F9060084D12C20405D002806D01D
:1087200022462846039901F0F7FA0600C7D13046E1
:1087300072E700B587B018216846FFF726FD0020D4
:10874000694608700190087240200882B42048826F
:10875000684673DF002803D00022114600F018F8A5
:10876000022000F03BFC002803D00022114600F05C
:108770000FF807B000BD0000044842680121C90598
:108780000B46934383600A40C26070470005005067
:10879000BFF34F8F04490348C860BFF34F8F00BF3A
:1087A000FDE700000400FA0500ED00E08268C36800
:1087B00093420AD0826883881A4003689A5C0A70E0
:1087C0008168491C8160002070470520704700299E
:1087D00006D0002A02D0531E134203D0092070474E
:1087E0000E2070470160838000218160C1600846CF
:1087F00070478268C3689B1A8288934208D8C3680E
:1088000013400268D154C168491CC1600020704700
:108810000420704710B5002903D08A070024002ADD
:1088200001D0072010BD0F4A0B4651601070142173
:108830005470414318469460FFF7A7FC00200A4992
:10884000C0438860094840210160094A1068FF233D
:108850001B0498430B041843106006480160002075
:1088600010BD0000482000200063004080E200E0CE
:1088700004E400E000E100E00A4B5A68002A04D05A
:108880005B78984203D30720704708207047142371
:1088900058438018044A12690068024000200A60A8
:1088A000704700004820002000050050F0B51F4A26
:1088B0005168002904D05378984203D30720F0BDB3
:1088C0000820F0BD1A4B0025DD631A4B1C69976820
:1088D000002F02D1184EDB057360012686403E430F
:1088E0009660142250434218D560002201230D588F
:1088F00093401D4215D01C4202D003252D0405E0F3
:1089000001256D044618F7681F43F7600B4B96006E
:10891000F3181E6803273F04BE431E601E682E43E3
:108920001E60521C202AE1D30020F0BD4820002008
:108930004061004000050050006300400007005007
:10894000F8B5114F84467D68002D07D0002B07D065
:1089500078783C78A04205D30420F8BD0820F8BD03
:108960000720F8BD0E461424164344432E516419C3
:108970002361A260616061460870411C797001F05A
:1089800019F90020F8BD00004820002070B5114CF6
:10899000A568002D06D0002A06D0002804D00023A8
:1089A000247809E0082070BD072070BD24265E43AE
:1089B000AE5D002E04D05B1CA342F7DB042070BD2B
:1089C000242401265C432E5564196170A261036062
:1089D000002070BD54200020FFB59807002481B00E
:1089E0001E4615460F4600280BD1002E09D001F077
:1089F000FFF822490A9888610F70324600208E6085
:108A000008E0072005B0F0BD24234343D4549B184D
:108A10001C75401CB842F7DB24204743BB190320D8
:108A200048700F461846CB601946183000221823AC
:108A30002E465E43D3005B181C705C709D705860BE
:108A40003018521C032AF5DB0020C0433861BC708B
:108A5000FC7001240A482405046003211420FFF758
:108A60000DFC08480460084C0198A0600321112007
:108A7000FFF704FC606878610020C3E75420002001
:108A800080E200E000E100E000150140FEB5044690
:108A90001D48174682680D46002A0CD001788C428A
:108AA00001D2052D01D20720FEBD214624235943C2
:108AB000535C012B01D00820FEBD881840780128A6
:108AC0001DD0002601F0ECFAC0000F490190C968E2
:108AD0004018694601F00EFB002812D001210170F8
:108AE0000A49446049680830E2C007490198C968EA
:108AF00041180098487001F075F90020FEBD2E461F
:108B0000E0E70420FEBD00005420002000150140D5
:108B1000F8B5144D0446A868002809D029788C427D
:108B200001D30720F8BD24216143405C012801D016
:108B30000820F8BD01F0B4FAC600E86869463018AC
:108B400001F0D8FA00280AD0022101704460E868D8
:108B500031180098487001F045F90020F8BD042054
:108B6000F8BD00005420002010B501460148FFF771
:108B70001DFE10BDB8250020FFB581B00446674D2D
:108B800000200A9E0F466870AA60002958D0B88855
:108B9000396882B26248FFF71AFE002851D1B889BD
:108BA000B96882B25E481030FFF711FE002848D144
:108BB0006078032781005B4809180F602278002144
:108BC00092001018016058486278C26022784261B1
:108BD000A2684262544B62794033002A02D00E22CE
:108BE000DA6200E0D9622279022A06D0012A4F4FC8
:108BF00032884ED0002A63D066E0A1788A004949C5
:108C000051180F60A27801210F469740484A5760DB
:108C10008A1E0261A2788260D86A0843D862E0782E
:108C20000A4682406A60830003223E4812041818F4
:108C30000260E07881403088002804D0FF280FD2FD
:108C4000072005B0F0BD35483A4B0A46801CFFF7B7
:108C500077FE0028F5D1A8780002FF30308001E0CF
:108C6000000AA8706946A878FFF706FE0028E8D138
:108C7000A878FFF71BFE0028E3D1E17801208840A7
:108C80000099084201D1012000E0002000F04EFFD1
:108C90002BE0002A03D12A783280521C2A70042249
:108CA0000260254A9160D161DA6A01210A43DA62E1
:108CB000E2780261A2788260B9603960697014E07C
:108CC0002A783280521C2A70042202601A4A91606B
:108CD000D161D96A49084900D9620021C94381603C
:108CE00001610120B8603860687000211348C943F1
:108CF0008160A12189004160114804210160114B6C
:108D000004981A68FF2424048007000EA24300047C
:108D100002431A600C480160002092E73C200020CA
:108D2000B82500200007005000250040002000402A
:108D3000000500503D940100002100400023004048
:108D400080E200E000E400E000E100E010B5014650
:108D50000448FFF74EFD0446022000F0E7FE2046DF
:108D600010BD0000C825002070B50C4692B000214F
:108D70006A46117007251171002809D0C17849078A
:108D80000CD502A9FFF730FC002808D102AE00E0A4
:108D90000026002C0ED0E078002802D0284612B021
:108DA00070BD01AA0AA92046FFF71EFC0028F6D1D3
:108DB0000AAA00E00022684603790178304672DF93
:108DC000EDE7000070B5054601461C220F48FFF78D
:108DD000C3F90F4C002626702968002907D0082205
:108DE000A018FFF7B9F9204608307ADF02E00848FA
:108DF00008307BDF002808D1401E60800448667080
:108E0000044A0021001DFFF7C1FD70BD9C25002014
:108E1000242000203DA00100F8B5224C0288002744
:108E20001F4DE689102A16D029464968112A21D0FB
:108E3000122A2DD0502A1CD1C288801DB24218D1CE
:108E4000028B022A15D1C27E837E10021843C0070E
:108E5000C00F0CD112E081886980014610480822B9
:108E600016311030FFF778F96F70002E01D100F045
:108E70005FFAF8BD0020C04368806F700846FFF7B6
:108E800047FE0028F5D0A1690029F2D08847F8BD37
:108E9000811D034808221030FFF75EF9E7E7000064
:108EA000242000209C25002010B50446FFF7B4FFC5
:108EB0002146034800F03AF8204600F0B9FD10BD05
:108EC0008025002030B5184B0D4604000FCB85B02F
:108ED00003936B4607C324D0002D22D00020C0434B
:108EE000A0822868A0610020A0752146684663DF43
:108EF000002814D121786846817401210182A21CC6
:108F000004A90120A0DF002809D12946204600F04D
:108F100091FE002803D12946204601F015F805B03E
:108F200030BD0E20FBE70000F0A1010000281ED09C
:108F300000291CD00A88102A14D0112A14D0502AD3
:108F400015D1CA88038A891D9A4202D10B8B022B44
:108F50000ED083889A420AD18369002B07D00A8BEE
:108F60001A311847898801E00021C943818270477E
:108F7000CA7E8B7E11021943C907C90F00D0012197
:108F80008175704707B584B000280DD0828A114BD7
:108F90009A420BD0827D002A08D06A46128B142A8E
:108FA00006D9072007B000BD0E20FBE70820F9E72F
:108FB0000022009201920292039282896B461A80EB
:108FC000039106A9029101219970808A6946A6DF62
:108FD000E8E70000FFFF00000020704710B5054AD9
:108FE0000146127A0020D20702D0084600F028F885
:108FF00010BD00000C20002010B50D4A516090609B
:10900000C00706D007210B48490581600022C260D5
:1090100081610748084A00210C30FFF7B7FC00289F
:1090200005D10348054A01211030FFF7AFFC10BD00
:109030000C20002000050050619501007987010097
:10904000F8B5064601200021800542100D46694C06
:10905000694F3300FFF7FAF9180D131335455369BB
:109060007A7E857E858F9292929292B3BABDC2C962
:10907000C9B803204005A060E5603D70A4E0A06091
:10908000E5606068072149054840800209D5A26073
:10909000E560022E02D1E120C0000AE07D204001FF
:1090A00007E0E260A560022E01D1C82001E0FF20A8
:1090B00091303E706421FFF739F87968414300220E
:1090C0002EE0A060E5606068072149054840800205
:1090D00004D5A260E56019204001EAE7E260A560DE
:1090E000E3E7A060E5606068072149054840800229
:1090F00002D5A260E560D1E7E260A560D7E7A06095
:10910000E5606068072149054840800202D5A260F9
:10911000E56001E0E260A5603E70786841000022F1
:10912000F868FFF7B3FC01464EE0A060E5606068B8
:10913000072149054840800202D5A260E56001E0B0
:10914000E260A5603E7000227968E9E7A060E56012
:10915000E2604DE0616802468A43A2600140E1603E
:10916000F1E7616802468A43A2600140E1607868E5
:1091700081004118D3E7072040051DE03869FFF75B
:10918000C7FC01461120801B01D0002904D001201A
:10919000C005A060E56017E001280BD9C82148434D
:1091A0006421FEF7C3FF7968002241433869FFF765
:1091B0006DFC01460120C005E060A56004E00720C9
:1091C0004005A060E5603E700846F8BD03208005BC
:1091D000BCE705225205A260E56008E00120C00559
:1091E000A060E5600320400501E007204005E06045
:1091F000A560E8E7000500500C200020F8B52248E3
:1092000001694A1C3DD024225143826889184E6866
:109210001E494C6847690079E11B0D022D0AED1CBF
:10922000002814D101201A4A00045060184A403A1C
:10923000506018494000086017490860174901202C
:1092400008602F20FEF746FF0F4901200871B54244
:1092500000D23546E81900020C49000A4031086086
:109260000A494968001B091B0902090A0002000A91
:10927000C91C814204D90120064940048039086094
:10928000F8BD00F0B5FCF8BD5420002000150140E9
:109290004013014080E200E000E100E000100140E6
:1092A000F8B50D4611780646881D14461F2801D9C9
:1092B0000C20F8BD33880720062BFAD31927FF01AD
:1092C000BB4202D9164A9342F3D17288062AF0D3E0
:1092D000BA4202D9124FBA42EBD1114FBB4203D06E
:1092E000BA4201D09342E4D8481C052220706A5447
:1092F00020781222411C21702A542078411930888C
:1093000000F096FE21784018C0B220704119708894
:1093100000F08EFE2178401820700020F8BD00007B
:10932000FFFF000010B500221146FFF731FA10BD13
:10933000F8B5164800F0E2F8144D0026103D144C24
:10934000002807D0616900291BD001206A461070EF
:10935000684615E02878002805D06169002910D0FA
:10936000684606700CE0687800280CD0A1680022DE
:109370006868FFF78BFB002803D0A169002900D0A3
:1093800088472E70F8BD6168F1E7000034200020A6
:109390009C25002010B50E4900238A78CC78A24283
:1093A00012D0521CD2B28A70022A00D18B708A78F5
:1093B000074B92001C339A5802604869101800024B
:1093C000000A4861012010BD0360002010BD0000AC
:1093D00054200020F7B5144C0025A76823691EE02F
:1093E00024215943C9194E68864202D9301A48606F
:1093F00017E0801B751900264E600E750E699C469D
:109400000B6AB646002E0AD0019E76193602360A3D
:109410008E607646CE6016680E6261461160591CF9
:10942000DED12361FEBD00005420002010B50446AB
:10943000C0B2FFF78BFC204610BD0000F8B5054612
:109440000D4E0C46084671682840084208D069460F
:10945000B078FFF711FA00280CD10098054084433A
:109460007068044201D0012002E0054202D00020D1
:1094700000F05CFBF8BD00003C200020F8B51E4C5D
:109480002078002837D02069002807D00026E0681F
:10949000002805D00025002E04D013E00126F6E7B1
:1094A0000125F8E7684651DF052806D0002806D0D8
:1094B00000221146FFF76CF904E0012602E0216961
:1094C00000988847002D12D1608869460880A068FE
:1094D00061DF052806D0002806D000221146FFF7DC
:1094E00057F904E0012502E0E168A0688847002EF2
:1094F000D8D0002DCFD0F8BD7C2000204188054871
:109500000288914204D34088814201D801207047EB
:10951000002070472C2000201048018CC9B201297E
:1095200017D1818C090714D1018D09060A0F03D1C7
:10953000828D1206120F0ED0090F012903D1828DE0
:109540001206120F07D0032903D1808D0006000FE9
:1095500001D000207047012070470000C00F00F0CC
:1095600010B50448017AC90702D00078FFF768FDFA
:1095700010BD00000C200020F8B5234801690091BF
:10958000457833E02048E900C0680E1834782AE0B6
:10959000182060437168641C0818B178E4B2A142D5
:1095A00000D100240178022902D003291BD113E045
:1095B000154A40682421926841438F18397D00295B
:1095C00011D000F049FC002038750CE024277843C6
:1095D000C0180275006A03E00B4900228B68086915
:1095E000471CF3D108617078A042D1D128466D1E86
:1095F000EDB20028C6D1044801690098814201D02B
:109600000120F8BD0020F8BD54200020F8B5044624
:10961000384800270169009146785CE03548F10040
:10962000C2688D1851E0601C07D0324A242092682D
:10963000604321468018046A24E0287818214143B9
:109640006A68401CC0B252182870A978884200D1BC
:109650002F70284B516824209B684843C01813780A
:10966000012B34D1037D002B31D193688360D36803
:10967000C360136903615269C2611E4A5279002AAC
:1096800000D087601B4B82685B6996469C46D31A64
:109690001A02194B120A9A4202D2C368D21808E081
:1096A000724663469A1A1202C368120A934202D99A
:1096B0009A1A426000E0476087600122C760027525
:1096C000921E0262084600F095FB601CABD1287820
:1096D00069788842A7D13046761EF6B200289DD11F
:1096E000044801690098814201D00120F8BD0020A2
:1096F000F8BD000054200020FFFF7F009CB07BA23B
:1097000007CA002400941A92199118907A4B0522E6
:1097100004212046FFF760F9002803D000221146FB
:10972000FFF736F875490120FFF774F8002803D0D9
:1097300000221146FFF72CF8002348227049082028
:1097400000F038FB002803D000221146FFF720F874
:10975000009468460194047060DF002803D0002262
:109760001146FFF715F8674800F01AFB002803D0F0
:1097700000221146FFF70CF8634D05AB281D07C802
:1097800007C3684604845E48FF2101315C300190C4
:109790004018039008A802910491009003235B4AAB
:1097A00001A905A8FFF7E8F9002803D00022114617
:1097B000FEF7EEFF002256490320FFF71DFC0028AC
:1097C00003D000221146FEF7E3FF0120FFF704FC5F
:1097D000002803D000221146FEF7DAFF1120694667
:1097E00008720B224BA102A87CDF002803D00022C4
:1097F0001146FEF7CDFF00941026684601940680BE
:109800003C214180FF2184809131C1807ADF002892
:1098100003D000221146FEF7BBFF414800903748B5
:1098200069461430FFF74EFB002803D00022114692
:10983000FEF7AEFF28681B903048052714300178EA
:1098400018A8817330216846FEF79FFC0221684604
:1098500001708470C77030210CA8FEF796FC0125BA
:1098600010A805801BA811900CA96846FFF77CFA88
:10987000002803D000221146FEF78AFF1C2168460B
:10988000FEF783FC0520C00301900F200004029026
:109890000094032168460173C48104742148059033
:1098A000214806906846FFF78DFA002803D0002271
:1098B0001146FEF76DFF1D49E1220878284310404C
:1098C000DF220C3010400870072048708E7018A9F5
:1098D00017A0FEF7ABFDFEF72CFF48DF0028FCD0F9
:1098E00000221146FEF754FFF7E70000537461723F
:1098F000742E2E2E0A000000042300206C25002068
:10990000A8200020A98E0100E0A10100C99F01004C
:10991000CD0C00004E6F726469635F554152540074
:10992000059A0100099B01002593010004200020F5
:109930002573000070B5054600790E46801C14465C
:10994000C0B21178821C8A181F2A01D90C2070BD60
:109950000A46491C2170401CB0542078FF22411C4B
:109960002170325420788119288800F061FB217819
:109970004018C0B22070AA88002A09D0A96800291E
:1099800008D08019FEF7E8FB20782979401820706C
:10999000002070BD072070BDF8B514780746A01CE4
:1099A00015460E461F2803D87878801C1F2801D939
:1099B0000C20F8BD1D20001B80B269468646088039
:1099C0003019801C7DDF0028F3D13878022805D1BA
:1099D00068460088704501D8092107E07878082199
:1099E000002801D0704501D968460088421C3255D4
:1099F000641CE2B2B1542978801C08182870002039
:109A0000F8BD000010B51446082205A10748FFF76D
:109A1000B9FA002000E0401CA042FCD310BD0000B9
:109A20004655434B20594F550A0000008025002021
:109A300070B5334C054601886688324814293AD0FF
:109A40000CDC10291CD0112926D0132917D1002194
:109A500003460160221D30467FDF0AE017290ED041
:109A6000192936D052290AD100231A461946304600
:109A7000A9DF002803D000221146FEF789FE70BD41
:109A80000720FFF7ABFA002803D000221146FEF7AB
:109A90007FFEA888608070BD0020FFF79FFA002835
:109AA00003D000221146FEF773FE0020C043608001
:109AB000FEF73FFE70BD0168002904D000231A465E
:109AC000304682DFD5E700231A461946304682DF4A
:109AD000CFE7A8790028EDD1FFF780FA002803D05E
:109AE00000221146FEF754FE0120FFF775FA002808
:109AF00003D000221146FEF74BFE3CDFB9E7000021
:109B0000002000209020002010B50078002809D106
:109B100005483B21408876DF002803D0002211460B
:109B2000FEF736FE10BD00000020002010B51D4AD3
:109B30001D490300FEF78AFC05040B3120271200A3
:109B4000487801281FD0022808D1032005E0487872
:109B5000002804D0032801D10220487010BD134B07
:109B600004201860124B012018609368D2689A4252
:109B7000F3D0FEF7F1FC10BD4878012806D002288A
:109B800004D00328F7D1FEF71FFD10BD9068D168FF
:109B90008142EED1FEF706FD10BD48780128E8D0DD
:109BA00010BD0000C82500203C20002000250040FA
:109BB00000200040F0B50C4A0021536814225043A5
:109BC00001240A4D03273F041E5822468A401642AC
:109BD00006D08A0052191668BE43166016681660D1
:109BE000491C2029F0D3F0BD482000200007005078
:109BF00070B501240B49600408600B49401088606F
:109C0000094940398860094D6C602F20FEF762FADF
:109C1000AC60074D00242F206C61FEF75BFA2C71BD
:109C200070BD000080E100E04013014000100140E1
:109C30005420002070B500240546601C90B0000739
:109C4000000F08A9103008940870601C0007000F6E
:109C5000103048708878F9263040801C88701C21AC
:109C600001A8FEF792FA694608791021084369466F
:109C70000871029408A80494059407940690287823
:109C800008A988710320694688841120009408700F
:109C900048708878F7213040801C0840EF21084048
:109CA000012630436946887014210AA8FEF76DFA30
:109CB00009A80A9068460B9069460E8614204C86C7
:109CC00088862B4668880C330AAA01A9A2DF10B047
:109CD00070BD0000F0B500220123032636041F46A4
:109CE0009740394212D0C5683D4203D10124640433
:109CF0003D4301E03446BD43C560064D97007D19E4
:109D00002F68B7432F602F6827432F60521C202AEB
:109D1000E5D3F0BD00070050F7B582B002981446B5
:109D2000806A0F46002833D002980025203000902A
:109D300028E00298816A0C2068430E182178307957
:109D40004A1C2270C01C785420781622411C2170B5
:109D50003A542078C119308800F06AF92178401807
:109D6000C0B22070B288002A09D0B16800290FD093
:109D7000C019FEF7F1F920783179401820706D1C78
:109D80000098EDB2007BA842D3D8002005B0F0BD0A
:109D90000720FBE710B508461146C046C04610BD77
:109DA000002803D00249C860002070470E20704789
:109DB0007C20002070B5002901D08C0701D007203D
:109DC00070BD064C0125A16062800549636010DF0B
:109DD0000028F5D1257016202EDF70BD7C200020D4
:109DE000959D0100012002490005086070470000B0
:109DF00000E200E0F0B5174F2421BC6841430D1983
:109E000039694A1C09D024224A4316196B687268C2
:109E1000934204D8D21A726029623861F0BD0A46B2
:109E200002E00A46396A9B1B4E1C0BD024264E4387
:109E300037197E689E42F4D324264E43361977683C
:109E4000FF1A77606B60296224214A431119086266
:109E5000F0BD00005420002070B5194C2269A5689F
:109E60001346114606E0814207D00A462426714374
:109E70004919096A4E1CF6D170BD002EFCD08A42E9
:109E80000CD1242043435819006A2061401C05D19D
:109E90000C4B0120986000236361607124204143D2
:109EA0004819242341685A43006A52191062421C1F
:109EB000E2D024225043401942685118416070BDDD
:109EC0005420002000100140F8B51D4C2569681C85
:109ED00035D01C48002640686169401A07023F0AD5
:109EE00019E024204543A0682A185068B84214D8C5
:109EF000A3693F1A8619156A002B09D0D1699069A8
:109F00009847002807D000221146FEF741FC02E0E6
:109F10009169D0698847681CE3D1A178E0788142D3
:109F200006D1401CC0B2E070022801D10020E070D0
:109F300003490006800D1C310E50FFF753FFF8BD9A
:109F4000542000200015014070B58EB005461C213C
:109F50006846FEF71AF9694608780C2108436946F5
:109F600008700024019403940494059406942878BE
:109F700008A98870022069460884601C0007000F49
:109F800010300794087711204877887FF92108401E
:109F9000F721801C0840EF21084001263043694624
:109FA0008877142109A8FEF7F0F808A8099007A8F7
:109FB0000A9069468E851420CC85088668882B1DFA
:109FC00009AAA2DF0EB070BD70B50178002909D0D2
:109FD000012901D0022904D1002240681146FEF770
:109FE000D7FB70BD104C0F4D20782818FEF7BCFD34
:109FF0002078401CC2B2A81822702038C07F0A28DE
:10A0000001D0142AEDD307490848FEF7BBFF082802
:10A0100005D0002803D000221146FEF7B9FB00202E
:10A02000207070BDF020002000200020802500203E
:10A030000870000A487002207047000038B51549C2
:10A04000154A488890420FD04A78144C521CD2B21C
:10A050004A70237B934208D3083175DF002803D070
:10A06000A169002900D0884738BD00254D70217CAA
:10A07000002907D03B2176DF002803D0A169002901
:10A0800000D0884761690029EED06846057088478E
:10A0900038BD000024200020FFFF00009C25002088
:10A0A00012494868C005C00D19D0103840B20028C8
:10A0B00007DA0207120F083A920892005118C9698C
:10A0C00004E081080A4A8900891809688007C00EDF
:10A0D000C1400806800F012803D0032803D00220C6
:10A0E00070470020704701207047000000ED00E03D
:10A0F00000E400E042788378521C934200D10022B1
:10A100000378934201D1002070470A60416840788B
:10A110001822504308187047F8B51546069C1E468D
:10A1200007460222009400F00AF8002806D13346C0
:10A13000102229463846009400F001F8F8BDFFB51A
:10A1400083B0074600200C9C8646267805463AE0F8
:10A150007868A90041180A88684682804988C180C9
:10A160000022694601A865DF002810D16846017801
:10A170000598814226D17046002801D0002200E0D7
:10A1800002222078891841181F2902D90C2007B013
:10A19000F0BD7146002908D1401CC0B2411C069B8D
:10A1A000049A21701A5401208646217806980A18CC
:10A1B000694601A865DF0028E9D169462078097859
:10A1C000401820706D1C3888A842C1DC70460028F9
:10A1D00004D020780699801B401E88550020D6E7C1
:10A1E000010000000B09080A0100000000509D005A
:10A1F0009ECADC240EE5A9E093F3A3B50000406EEF
:10A2000020A20100002000209000000066840100D0
:10A21000B0A2010090200020480D000076840100CB
:10A220000000FFFF00000000000000000000000030
:10A23000000000000000000000000000000000001E
:10A240000024F400000000000000000000000000F6
:10A2500000000000000000000000000001000000FD
:10A2600000000000000000000000000000000000EE
:10A2700000000000000000000000000000000000DE
:10A2800000000000000000000000000000000000CE
:10A2900000000000000000000000000000000000BE
:10A2A00000000000000000000000000000000000AE
:04000005000180C1B5
:00000001FF
