:020000040001F9
:10800000802C0020F58001000F810100118101000A
:108010000000000000000000000000000000000060
:1080200000000000000000000000000013810100BB
:108030000000000000000000158101001781010010
:1080400019810100198101001981010019810100C4
:108050001981010000000000E18101001981010087
:1080600019810100198101001981010019810100A4
:108070001981010019810100198101001981010094
:1080800019810100DD8201001981010019810100BF
:10809000FD82010019810100518301001981010055
:1080A000198101001981010000000000000000009A
:1080B00000000000000000000000000000000000C0
:1080C0000348854600F07AF80048004755920100C1
:1080D000802C0020401E00BF00BF00BF00BF00BFBB
:1080E00000BF00BF00BF00BF00BF00BF00BFF1D195
:1080F000704700000321094802680A4302600848EB
:1081000002680A4302600748804707480047FEE7C5
:10811000FEE7FEE7FEE7FEE7FEE70000240500407D
:108120005405004075830100C180010030B50B4645
:10813000014600202022012409E00D46D5409D4241
:1081400005D31D469540491B2546954040191546C7
:10815000521E002DF1DC30BD03460B439B0703D0BC
:1081600009E008C9121F08C0042AFAD203E00B78FC
:108170000370401C491C521EF9D27047D2B201E074
:108180000270401C491EFBD270470022F6E710B572
:1081900013460A4604461946FFF7F0FF204610BD75
:1081A00030B504460020034600E05B1C934203D236
:1081B000E05CCD5C401BF8D030BD0000064C0125D2
:1081C000064E05E0E36807CC2B430C3C984710347F
:1081D000B442F7D3FFF778FF5C9A01007C9A010064
:1081E000F0B52A4885B0046929480021C1630E46CC
:1081F000284F45E014207968704345180120B9687C
:10820000B04008423AD0002000900390E868296806
:10821000C0436040084001460290284601F0FEF944
:108220001A48006929686040084016D0224642403A
:108230000192E868C043504008400146009028463B
:1082400001F0ECF9019A0098A9689043014003916C
:10825000009869680240114000910298A968A04303
:1082600001400398029A0143686822401040009A36
:10827000104302460A4301D02A699047761CF6B2A1
:1082800078788642B6D305B0F0BD000000050050F6
:1082900040610040582000208307FF22DB0E9A40F7
:1082A0008907090E994000280BDA0007000F0838EB
:1082B000830808489B001818C36993430B43C361A4
:1082C0007047830804489B001B18186890430843B4
:1082D0001860704700ED00E000E400E010B50649CA
:1082E0000020086048608860C86003494039086021
:1082F000486001F099FA10BD40110140FEB5002020
:10830000C043124D02906869019068462E6900F0E2
:1083100015FE074600F0DCFE0446002F08D002AA36
:108320000199009800F02AFE029800F01BFF06E079
:10833000029800F017FF002801D1002C02D030462F
:1083400000F030FD00206871FEBD000074200020A8
:1083500010B507484068002807D08047002803D0A0
:108360000022114600F020F910BD00F033FE10BDD0
:108370009820002010B500F07BFE002805D00E49A3
:108380000C484860C8130D4988610D48018CC9B27A
:1083900001290ED1818C09070BD1018D0906090F26
:1083A000042906D1808D0006000F02D10549012065
:1083B000886010BDDFFF07C000050040006C004072
:1083C000C00F00F00006004030B47446641E2578EB
:1083D000641CAB4200D21D46635D5B00E31830BCF9
:1083E000184702E008C8121F08C1002AFAD17047D6
:1083F0007047002001E001C1121F002AFBD1704725
:10840000F7B582B00026054616700078144600289D
:1084100005D02846039901F013F8060008D1A87882
:1084200000281ED02078039F001D1F2802D90C2091
:1084300005B0F0BD684679DF0028F9D12178032224
:10844000481C20707A5421781922481C20707A54D4
:108450002078C1196846008801F026FA2178401872
:108460002070E8780223002810D02078039A411C5D
:108470002170135420780399471C012227700A5455
:108480002078EA78471C039927700A546868002806
:1084900015D00021415620788C460246C01C039915
:1084A0001F28C4D8501C20708B5422780A23501CDB
:1084B00020708B5420786246431C23700A5428890C
:1084C000002809D028460094062202210830039B88
:1084D00001F05EFA0600ABD1288A002809D02846B0
:1084E0000094072203211030039B01F051FA06008B
:1084F0009ED1288B002809D02846009415221421EB
:108500001830039B01F044FA060091D1286A002834
:1085100005D02246039900F097FC060088D1686ACE
:10852000002805D02246039900F058FF060084D1A8
:108530002C20405D002806D022462846039901F0F1
:108540008FF80600C7D1304672E700B587B0182112
:108550006846FFF71AFE002069460870019008720D
:1085600040200882B4204882684673DF002803D088
:108570000022114600F018F8022000F003FB00284A
:1085800003D00022114600F00FF807B000BD000034
:10859000044842680121C9050B46934383600A40A1
:1085A000C260704700050050BFF34F8F0449034875
:1085B000C860BFF34F8F00BFFDE700000400FA055D
:1085C00000ED00E010B5002903D08A070024002A3E
:1085D00001D0072010BD0F4A0B46516010701421C6
:1085E0005470414318469460FFF7CFFD00200A49BC
:1085F000C0438860094840210160094A1068FF2390
:108600001B0498430B0418431060064801600020C7
:1086100010BD0000582000200063004080E200E010
:1086200004E400E000E100E070B50F4B05241D7884
:108630005E78AE4215D01D781C789E88B44201DA6F
:10864000641C00E000241C705C88DE686C43A41984
:1086500004609B68E800C418A4880C8018580024A3
:108660001060204670BD000064200020F7B53B4C30
:1086700082B060880F4681426ED80020694608703B
:108680003849374E4868C005C00D18D0103840B280
:10869000002807DA0207120F083A920892005118D0
:1086A000C96904E08108304A89008918096880078F
:1086B000C00EC1400806850F012D01D10AE0042536
:1086C000684636DF02280CD0002803D0002211466D
:1086D000FFF76AFF22786078A188884203DA401C9D
:1086E00002E072B6F6E70020C0B2904207D066788A
:1086F0006078884201DA401C00E000206070012DA3
:108700000BD062B66846007837DF022805D0002813
:1087100003D000221146FFF747FF1148864219D0C7
:10872000A068F50004994151029900290CD0002F4E
:108730000AD060883A464643E0683018FFF70CFDDF
:10874000A0682818878002E0002128188180002076
:1087500005B0F0BD0420FBE70920F9E76420002004
:10876000FFFF000000ED00E000E400E00EB504E0D3
:1087700068468188029A0098904702AA01A9684633
:10878000FFF752FF0028F3D00EBD000030B5CB003C
:1087900008339DB293070024002B01D0072030BD81
:1087A000044B9A605219DA605C701C705880998092
:1087B000002030BD6420002070B5114CA568002D4C
:1087C00006D0002A06D0002804D00023247809E02F
:1087D000082070BD072070BD24265E43AE5D002ECC
:1087E00004D05B1CA342F7DB042070BD24240126C7
:1087F0005C432E5564196170A2610360002070BD56
:108800007420002010B50446082904D00022114627
:108810001046FFF7C9FE21686068884710BD000058
:108820001CB501910090034A08216846FFF71EFF1E
:108830001CBD000005880100FFB59807002481B029
:108840001E4615460F4600280BD1002E09D000F019
:10885000C3FE22490A9888610F70324600208E605C
:1088600008E0072005B0F0BD24234343D4549B18EF
:108870001C75401CB842F7DB24204743BB1903207A
:1088800048700F461846CB6019461830002218234E
:108890002E465E43D3005B181C705C709D70586060
:1088A0003018521C032AF5DB0020C0433861BC702D
:1088B000FC7001240A482405046003211420FFF7FA
:1088C000EBFC08480460084C0198A06003211120CB
:1088D000FFF7E2FC606878610020C3E774200020A5
:1088E00080E200E000E100E000150140FEB5044632
:1088F0001D48174682680D46002A0CD001788C422C
:1089000001D2052D01D20720FEBD21462423594363
:10891000535C012B01D00820FEBD88184078012847
:108920001DD0002600F0F8FFC0000F490190C96873
:108930004018694601F01AF8002812D00121017090
:108940000A49446049680830E2C007490198C9688B
:1089500041180098487000F0F5FE0020FEBD2E463C
:10896000E0E70420FEBD0000742000200015014057
:10897000F8B5144D0446A868002809D029788C421F
:1089800001D30720F8BD24216143405C012801D0B8
:108990000820F8BD00F0C0FFC600E868694630183E
:1089A00000F0E4FF00280AD0022101704460E8686A
:1089B00031180098487000F0C5FE0020F8BD042072
:1089C000F8BD00007420002070B50C4692B0002164
:1089D0006A46117007251171002809D0C17849072E
:1089E0000CD502A9FFF70CFD002808D102AE00E06B
:1089F0000026002C0ED0E078002802D0284612B0C5
:108A000070BD01AA0AA92046FFF7FAFC0028F6D19A
:108A10000AAA00E00022684603790178304672DF36
:108A2000EDE7000070B5054601461C220F48FFF730
:108A300093FB0F4C002626702968002907D00822D6
:108A4000A018FFF789FB204608307ADF02E00848CB
:108A500008307BDF002808D1401E60800448667023
:108A6000044A0021001DFFF7A7FE70BD642400200A
:108A700040200020B5980100F8B5224C028800275C
:108A80001F4DE689102A16D029464968112A21D09F
:108A9000122A2DD0502A1CD1C288801DB24218D172
:108AA000028B022A15D1C27E837E10021843C007B2
:108AB000C00F0CD112E0818869800146104808225D
:108AC00016311030FFF748FB6F70002E01D100F017
:108AD00003FAF8BD0020C04368806F700846FFF7B6
:108AE00047FF0028F5D0A1690029F2D08847F8BDDA
:108AF000811D034808221030FFF72EFBE7E7000036
:108B0000402000206424002010B5044600F0CEFC74
:108B10002046FFF7B1FF10BD1CB5002348221549C0
:108B2000082000F0EBFD002803D000221146FFF7DB
:108B30003BFD00200090694601900870684660DFA8
:108B4000002803D000221146FFF72EFD0A4800F04E
:108B5000CBFD002803D000221146FFF725FD074872
:108B600000F0E4FD002803D000221146FFF71CFDB1
:108B70001CBD000058230020098B01004197010013
:108B80000020704710B5054A0146127A0020D2072E
:108B900002D0084600F028F810BD00002820002070
:108BA00010B50D4A51609060C00706D007210B48F0
:108BB000490581600022C26081610748084A00219E
:108BC0000C30FFF7F9FD002805D10348054A0121C3
:108BD0001030FFF7F1FD10BD2820002000050050E7
:108BE000B990010091850100F8B5064601200021E9
:108BF000800542100D46694C694F3300FFF7E4FBD6
:108C0000180D1313354553697A7E857E858F9292B0
:108C1000929292B3BABDC2C9C9B803204005A06000
:108C2000E5603D70A4E0A060E5606068072149054B
:108C30004840800209D5A260E560022E02D1E12001
:108C4000C0000AE07D20400107E0E260A560022E3E
:108C500001D1C82001E0FF2091303E706421FFF770
:108C600065FA7968414300222EE0A060E560606803
:108C7000072149054840800204D5A260E56019201B
:108C80004001EAE7E260A560E3E7A060E5606068B4
:108C9000072149054840800202D5A260E560D1E77E
:108CA000E260A560D7E7A060E5606068072149053C
:108CB0004840800202D5A260E56001E0E260A56064
:108CC0003E70786841000022F868FFF70FFE014609
:108CD0004EE0A060E56060680721490548408002D9
:108CE00002D5A260E56001E0E260A5603E7000226E
:108CF0007968E9E7A060E560E2604DE061680246FE
:108D00008A43A2600140E160F1E7616802468A435C
:108D1000A2600140E160786881004118D3E7072034
:108D200040051DE03869FFF723FE01461120801B36
:108D300001D0002904D00120C005A060E56017E043
:108D400001280BD9C82148436421FFF7EFF979685E
:108D5000002241433869FFF7C9FD01460120C005E3
:108D6000E060A56004E007204005A060E5603E707B
:108D70000846F8BD03208005BCE705225205A26025
:108D8000E56008E00120C005A060E5600320400523
:108D900001E007204005E060A560E8E7000500501D
:108DA00028200020F8B5224801694A1C3DD0242221
:108DB0005143826889184E681E494C68476900799A
:108DC000E11B0D022D0AED1C002814D101201A4AC6
:108DD00000045060184A403A50601849400008604A
:108DE000174908601749012008602F20FFF772F922
:108DF0000F4901200871B54200D23546E81900023A
:108E00000C49000A403108600A494968001B091BE7
:108E10000902090A0002000AC91C814204D9012082
:108E20000649400480390860F8BD00F0D5FBF8BD64
:108E300074200020001501404013014080E200E052
:108E400000E100E000100140F8B50D46117806463B
:108E5000881D14461F2801D90C20F8BD338807202F
:108E6000062BFAD31927FF01BB4202D9164A9342B7
:108E7000F3D17288062AF0D3BA4202D9124FBA420D
:108E8000EBD1114FBB4203D0BA4201D09342E4D898
:108E9000481C052220706A5420781222411C21703F
:108EA0002A5420784119308800F0FEFC21784018BF
:108EB000C0B220704119708800F0F6FC217840188B
:108EC00020700020F8BD0000FFFF000010B5002258
:108ED0001146FFF769FB10BDF8B5164800F0BAF867
:108EE000144D0026103D144C002807D0616900295C
:108EF0001BD001206A461070684615E028780028CB
:108F000005D06169002910D0684606700CE06878C9
:108F100000280CD0A16800226868FFF7E7FC002851
:108F200003D0A169002900D088472E70F8BD616880
:108F3000F1E70000502000206424002010B50E4905
:108F400000238A78CC78A24212D0521CD2B28A7006
:108F5000022A00D18B708A78074B92001C339A58F2
:108F60000260486910180002000A4861012010BD23
:108F70000360002010BD000074200020F7B5144CE1
:108F80000025A76823691EE024215943C9194E68AA
:108F9000864202D9301A486017E0801B75190026F6
:108FA0004E600E750E699C460B6AB646002E0AD0BE
:108FB000019E76193602360A8E607646CE601668B5
:108FC0000E6261461160591CDED12361FEBD0000B6
:108FD00074200020F8B51E4C2078002837D0206976
:108FE000002807D00026E068002805D00025002EC4
:108FF00004D013E00126F6E70125F8E7684651DFC3
:10900000052806D0002806D000221146FFF7CCFA2A
:1090100004E0012602E0216900988847002D12D162
:10902000608869460880A06861DF052806D00028AE
:1090300006D000221146FFF7B7FA04E0012502E04E
:10904000E168A0688847002ED8D0002DCFD0F8BDA9
:1090500098200020418805480288914204D3408826
:10906000814201D80120704700207047482000202D
:109070001048018CC9B2012917D1818C090714D17C
:10908000018D09060A0F03D1828D1206120F0ED030
:10909000090F012903D1828D1206120F07D003296F
:1090A00003D1808D0006000F01D000207047012001
:1090B00070470000C00F00F010B50448017AC907DE
:1090C00002D00078FFF790FD10BD0000282000209E
:1090D000F8B5234801690091457833E02048E9005C
:1090E000C0680E1834782AE0182060437168641C48
:1090F0000818B178E4B2A14200D100240178022915
:1091000002D003291BD113E0154A4068242192683C
:1091100041438F18397D002911D000F04DFB00200C
:1091200038750CE024277843C0180275006A03E004
:109130000B4900228B680869471CF3D108617078DD
:10914000A042D1D128466D1EEDB20028C6D10448F8
:1091500001690098814201D00120F8BD0020F8BDCE
:1091600074200020F8B504463848002701690091B2
:1091700046785CE03548F100C2688D1851E0601C0B
:1091800007D0324A24209268604321468018046A3E
:1091900024E02878182141436A68401CC0B2521864
:1091A0002870A978884200D12F70284B516824205C
:1091B0009B684843C0181378012B34D1037D002BE2
:1091C00031D193688360D368C360136903615269C6
:1091D000C2611E4A5279002A00D087601B4B826808
:1091E0005B6996469C46D31A1A02194B120A9A4298
:1091F00002D2C368D21808E0724663469A1A120275
:10920000C368120A934202D99A1A426000E047608A
:1092100087600122C7600275921E0262084600F054
:1092200099FA601CABD1287869788842A7D130467A
:10923000761EF6B200289DD104480169009881424B
:1092400001D00120F8BD0020F8BD000074200020EE
:10925000FFFF7F008EB055480090554B052204213A
:109260000020FFF7E9FA002803D000221146FFF79B
:109270009BF950490120FFF7A5F9002803D00022EF
:109280001146FFF791F9FFF747FC00224A490320F6
:10929000FFF786FC002803D000221146FFF784F96F
:1092A0000120FFF76DFC002803D000221146FFF7D4
:1092B0007BF9404A0A21B03A0820FFF767FA0028F4
:1092C00003D000221146FFF76FF91120694608729A
:1092D0000F223AA102A87CDF002803D00022114609
:1092E000FFF762F90024FF20913000946946019451
:1092F000088042004A808C80C88068467ADF002857
:1093000003D000221146FFF74FF9304805260068C8
:109310000C9030216846FEF738FF02216846017044
:1093200001258570C67005820CA80590002168464D
:10933000FFF74AFB002803D000221146FFF734F95B
:109340001C216846FEF721FF0520C00301900F2075
:10935000000402900094032168460173C4810474E0
:109360001B4805901B4806906846FFF75BFB0028EA
:1093700003D000221146FFF717F91749E1220878B8
:1093800028431040DF220C3010400870072048703E
:1093900010208870FFF7D9F8FFF7E8F948DF0028B8
:1093A000FAD000221146FFF7FFF8F5E72188010007
:1093B000AC20002050240020CD0C00004E6F7264C1
:1093C00069635F54656D706C61746500589A010043
:1093D000B5950100CD8E01000220002070B5054634
:1093E00000790E46801C1446C0B21178821C8A187F
:1093F0001F2A01D90C2070BD0A46491C2170401C4F
:10940000B0542078FF22411C2170325420788119F9
:10941000288800F049FA21784018C0B22070AA8844
:10942000002A09D0A968002908D08019FEF794FE07
:109430002078297940182070002070BD072070BD69
:10944000F8B514780746A01C15460E461F2803D809
:109450007878801C1F2801D90C20F8BD1D20001B26
:1094600080B26946864608803019801C7DDF00285E
:10947000F3D13878022805D168460088704501D8B4
:10948000092107E078780821002801D0704501D92A
:1094900068460088421C3255641CE2B2B1542978F7
:1094A000801C081828700020F8BD000070B53F4DE2
:1094B00004460188288814293FD00BDC10291AD0D3
:1094C000112924D0132915D12B461033AA1C0021B1
:1094D0007FDF09E0172929D0192950D0522909D155
:1094E000032300221146A9DF002803D000221146E1
:1094F000FFF75AF870BD0720FFF744FB002803D0A0
:1095000000221146FFF750F8A088288070BD002087
:10951000FFF738FB002803D000221146FFF744F87C
:109520000020C0432880FFF710F870BD1F480622B6
:10953000A11DC01DFEF710FE70BD20460A221C4969
:109540000E30FEF72DFE002817D000201749C91D48
:109550000B791946014001D0154912399A07D20FEB
:10956000024001D0124A0A325B07DB0F034001D0F0
:109570000F4B2133288882DFB6E70120E6E7A07988
:109580000028D9D1FFF7FEFA002803D000221146A7
:10959000FFF70AF80120FFF7F3FA002803D00022B2
:1095A0001146FFF701F83CDF9EE700000020002095
:1095B0002623002010B50078002809D105483B215A
:1095C000008876DF002803D000221146FEF7ECFF6A
:1095D00010BD00000020002070B501240B4960047C
:1095E00008600B4940108860094940398860094D7E
:1095F0006C602F20FEF76EFDAC60074D00242F201D
:109600006C61FEF767FD2C7170BD000080E100E029
:10961000401301400010014074200020F0B50022EA
:109620000123032636041F469740394212D0C568ED
:109630003D4203D1012464043D4301E03446BD436F
:10964000C560064D97007D192F68B7432F602F68BE
:1096500027432F60521C202AE5D3F0BD000700509D
:10966000F7B582B002981446806A0F46002833D0BE
:10967000029800252030009028E00298816A0C2092
:1096800068430E18217830794A1C2270C01C785427
:1096900020781622411C21703A542078C119308854
:1096A00000F002F921784018C0B22070B288002A78
:1096B00009D0B16800290FD0C019FEF74DFD207800
:1096C0003179401820706D1C0098EDB2007BA842E3
:1096D000D3D8002005B0F0BD0720FBE710B5084641
:1096E0001146C046C04610BD002803D00249C860DC
:1096F000002070470E2070479820002070B5002988
:1097000001D08C0701D0072070BD064C0125A16057
:1097100062800549636010DF0028F5D125701620AE
:109720002EDF70BD98200020DD960100002803D0B8
:1097300002490861002070470E20704798200020E1
:1097400070470000012002490005086070470000D2
:1097500000E200E0F0B5174F2421BC6841430D1929
:1097600039694A1C09D024224A4316196B68726869
:10977000934204D8D21A726029623861F0BD0A4659
:1097800002E00A46396A9B1B4E1C0BD024264E432E
:1097900037197E689E42F4D324264E4336197768E3
:1097A000FF1A77606B60296224214A43111908620D
:1097B000F0BD00007420002070B5194C2269A56826
:1097C0001346114606E0814207D00A46242671431B
:1097D0004919096A4E1CF6D170BD002EFCD08A4290
:1097E0000CD1242043435819006A2061401C05D144
:1097F0000C4B012098600023636160712420414379
:109800004819242341685A43006A52191062421CC5
:10981000E2D024225043401942685118416070BD83
:109820007420002000100140F8B51D4C2569681C0B
:1098300035D01C48002640686169401A07023F0A7B
:1098400019E024204543A0682A185068B84214D86B
:10985000A3693F1A8619156A002B09D0D16990694E
:109860009847002807D000221146FEF79DFE02E02F
:109870009169D0698847681CE3D1A178E07881427A
:1098800006D1401CC0B2E070022801D10020E07077
:1098900003490006800D1C310E50FFF753FFF8BD41
:1098A00074200020001501400870000A4870022052
:1098B0007047000038B51549154A488890420FD0C6
:1098C0004A78144C521CD2B24A70237B934208D37C
:1098D000083175DF002803D0A169002900D088472E
:1098E00038BD00254D70217C002907D03B2176DF53
:1098F000002803D0A169002900D0884761690029A8
:10990000EED068460570884738BD00004020002032
:10991000FFFF00006424002012494868C005C00D04
:1099200019D0103840B2002807DA0207120F083A9F
:10993000920892005118C96904E081080A4A890016
:10994000891809688007C00EC1400806800F0128E9
:1099500003D0032803D00220704700207047012065
:109960007047000000ED00E000E400E042788378FA
:10997000521C934200D100220378934201D100206F
:1099800070470A60416840781822504308187047B1
:10999000F8B51546069C1E4607460222009400F0C4
:1099A0000AF8002806D1334610222946384600948A
:1099B00000F001F8F8BDFFB583B0074600200C9C0D
:1099C0008646267805463AE07868A90041180A8854
:1099D000684682804988C1800022694601A865DF07
:1099E000002810D1684601780598814226D170463A
:1099F000002801D0002200E00222207889184118B6
:109A00001F2902D90C2007B0F0BD7146002908D1EA
:109A1000401CC0B2411C069B049A21701A540120BC
:109A20008646217806980A18694601A865DF00284D
:109A3000E9D1694620780978401820706D1C388873
:109A4000A842C1DC7046002804D020780699801B0B
:109A5000401E88550020D6E70F1801007C9A0100AF
:109A600000200020AC000000E2830100289B0100E0
:109A7000AC200020D40B0000F2830100FFFF0000A7
:109A8000000000000000000000000000142300207F
:109A900030230020472300200000000000000000C9
:109AA00000000000000000000000000000000000B6
:109AB00000000000000000000024F400000000008E
:109AC0000000000000000000000000000000000096
:109AD0000000000000000000000000000000000086
:109AE0000000000000000000000000000000000076
:109AF0000000000000000000000000000000000066
:109B00000000000000000000000000000000000055
:109B10000000000000000000000000000000000045
:089B200000000000000000003D
:04000005000180C1B5
:00000001FF
